{
  "contractName": "Estate",
  "abi": [
    {
      "inputs": [
        {
          "internalType": "uint256",
          "name": "_totalFlats",
          "type": "uint256"
        },
        {
          "internalType": "uint256",
          "name": "_endTime",
          "type": "uint256"
        },
        {
          "internalType": "uint256",
          "name": "_votingEndTime",
          "type": "uint256"
        }
      ],
      "stateMutability": "nonpayable",
      "type": "constructor"
    },
    {
      "inputs": [
        {
          "internalType": "uint256",
          "name": "",
          "type": "uint256"
        }
      ],
      "name": "buyerDetails",
      "outputs": [
        {
          "internalType": "address payable",
          "name": "buyerAddress",
          "type": "address"
        },
        {
          "internalType": "uint256",
          "name": "totalAmountPaid",
          "type": "uint256"
        },
        {
          "internalType": "uint256",
          "name": "amountRemaining",
          "type": "uint256"
        },
        {
          "internalType": "bool",
          "name": "fundClaimed",
          "type": "bool"
        }
      ],
      "stateMutability": "view",
      "type": "function",
      "constant": true
    },
    {
      "inputs": [
        {
          "internalType": "address",
          "name": "",
          "type": "address"
        }
      ],
      "name": "buyerMap",
      "outputs": [
        {
          "internalType": "uint256",
          "name": "",
          "type": "uint256"
        }
      ],
      "stateMutability": "view",
      "type": "function",
      "constant": true
    },
    {
      "inputs": [],
      "name": "endTime",
      "outputs": [
        {
          "internalType": "uint256",
          "name": "",
          "type": "uint256"
        }
      ],
      "stateMutability": "view",
      "type": "function",
      "constant": true
    },
    {
      "inputs": [],
      "name": "flatPrice",
      "outputs": [
        {
          "internalType": "uint256",
          "name": "",
          "type": "uint256"
        }
      ],
      "stateMutability": "view",
      "type": "function",
      "constant": true
    },
    {
      "inputs": [],
      "name": "owner",
      "outputs": [
        {
          "internalType": "address payable",
          "name": "",
          "type": "address"
        }
      ],
      "stateMutability": "view",
      "type": "function",
      "constant": true
    },
    {
      "inputs": [],
      "name": "soldFlats",
      "outputs": [
        {
          "internalType": "uint256",
          "name": "",
          "type": "uint256"
        }
      ],
      "stateMutability": "view",
      "type": "function",
      "constant": true
    },
    {
      "inputs": [],
      "name": "totalBuyers",
      "outputs": [
        {
          "internalType": "uint256",
          "name": "",
          "type": "uint256"
        }
      ],
      "stateMutability": "view",
      "type": "function",
      "constant": true
    },
    {
      "inputs": [],
      "name": "totalFlats",
      "outputs": [
        {
          "internalType": "uint256",
          "name": "",
          "type": "uint256"
        }
      ],
      "stateMutability": "view",
      "type": "function",
      "constant": true
    },
    {
      "inputs": [],
      "name": "totalVote",
      "outputs": [
        {
          "internalType": "uint256",
          "name": "",
          "type": "uint256"
        }
      ],
      "stateMutability": "view",
      "type": "function",
      "constant": true
    },
    {
      "inputs": [
        {
          "internalType": "address",
          "name": "",
          "type": "address"
        }
      ],
      "name": "voted",
      "outputs": [
        {
          "internalType": "bool",
          "name": "",
          "type": "bool"
        }
      ],
      "stateMutability": "view",
      "type": "function",
      "constant": true
    },
    {
      "inputs": [],
      "name": "votingEndTime",
      "outputs": [
        {
          "internalType": "uint256",
          "name": "",
          "type": "uint256"
        }
      ],
      "stateMutability": "view",
      "type": "function",
      "constant": true
    },
    {
      "inputs": [],
      "name": "buyflat",
      "outputs": [],
      "stateMutability": "payable",
      "type": "function",
      "payable": true
    },
    {
      "inputs": [],
      "name": "depositFund",
      "outputs": [],
      "stateMutability": "payable",
      "type": "function",
      "payable": true
    },
    {
      "inputs": [],
      "name": "putVote",
      "outputs": [],
      "stateMutability": "nonpayable",
      "type": "function"
    },
    {
      "inputs": [],
      "name": "claimFundContractor",
      "outputs": [],
      "stateMutability": "nonpayable",
      "type": "function"
    },
    {
      "inputs": [],
      "name": "claimFundUser",
      "outputs": [],
      "stateMutability": "nonpayable",
      "type": "function"
    },
    {
      "inputs": [],
      "name": "getBalance",
      "outputs": [
        {
          "internalType": "uint256",
          "name": "",
          "type": "uint256"
        }
      ],
      "stateMutability": "view",
      "type": "function",
      "constant": true
    },
    {
      "inputs": [],
      "name": "getdepositamt",
      "outputs": [
        {
          "internalType": "uint256",
          "name": "",
          "type": "uint256"
        }
      ],
      "stateMutability": "view",
      "type": "function",
      "constant": true
    },
    {
      "inputs": [],
      "name": "getamtremaining",
      "outputs": [
        {
          "internalType": "uint256",
          "name": "",
          "type": "uint256"
        }
      ],
      "stateMutability": "view",
      "type": "function",
      "constant": true
    }
  ],
  "bytecode": "0x60806040526801158e460913d000006002553480156200001e57600080fd5b506040516200271d3803806200271d83398181016040528101906200004491906200011a565b336000806101000a81548173ffffffffffffffffffffffffffffffffffffffff021916908373ffffffffffffffffffffffffffffffffffffffff1602179055508142620000929190620001a5565b600381905550826001819055508042620000ad9190620001a5565b60068190555060096001816001815401808255809150500390600052602060002090505050505062000202565b600080fd5b6000819050919050565b620000f481620000df565b81146200010057600080fd5b50565b6000815190506200011481620000e9565b92915050565b600080600060608486031215620001365762000135620000da565b5b6000620001468682870162000103565b9350506020620001598682870162000103565b92505060406200016c8682870162000103565b9150509250925092565b7f4e487b7100000000000000000000000000000000000000000000000000000000600052601160045260246000fd5b6000620001b282620000df565b9150620001bf83620000df565b9250827fffffffffffffffffffffffffffffffffffffffffffffffffffffffffffffffff03821115620001f757620001f662000176565b5b828201905092915050565b61250b80620002126000396000f3fe6080604052600436106101145760003560e01c80638da5cb5b116100a0578063b39d3a9e11610064578063b39d3a9e14610377578063c087476e1461038e578063f1cea4c7146103b9578063f40bb8d3146103e4578063f9f4461b146103fb57610114565b80638da5cb5b1461027b5780639cdb1837146102a6578063a7e6a17f146102e3578063aec2ccae14610323578063b335e0301461036057610114565b80633abd0136116100e75780633abd0136146101c55780634d14269f146101f057806384826b391461021b57806389c1cb62146102465780638d0d8cb61461027157610114565b806312065fe0146101195780631ea736e014610144578063312c8b551461016f5780633197cbb61461019a575b600080fd5b34801561012557600080fd5b5061012e610405565b60405161013b919061169a565b60405180910390f35b34801561015057600080fd5b5061015961049b565b604051610166919061169a565b60405180910390f35b34801561017b57600080fd5b506101846104a1565b604051610191919061169a565b60405180910390f35b3480156101a657600080fd5b506101af6104a7565b6040516101bc919061169a565b60405180910390f35b3480156101d157600080fd5b506101da6104ad565b6040516101e7919061169a565b60405180910390f35b3480156101fc57600080fd5b506102056104b3565b604051610212919061169a565b60405180910390f35b34801561022757600080fd5b506102306104b9565b60405161023d919061169a565b60405180910390f35b34801561025257600080fd5b5061025b6104bf565b604051610268919061169a565b60405180910390f35b610279610536565b005b34801561028757600080fd5b506102906108c7565b60405161029d91906116f6565b60405180910390f35b3480156102b257600080fd5b506102cd60048036038101906102c89190611754565b6108eb565b6040516102da919061169a565b60405180910390f35b3480156102ef57600080fd5b5061030a600480360381019061030591906117ad565b610903565b60405161031a94939291906117f5565b60405180910390f35b34801561032f57600080fd5b5061034a60048036038101906103459190611754565b610970565b604051610357919061183a565b60405180910390f35b34801561036c57600080fd5b50610375610990565b005b34801561038357600080fd5b5061038c610c2f565b005b34801561039a57600080fd5b506103a3610e77565b6040516103b0919061169a565b60405180910390f35b3480156103c557600080fd5b506103ce610eee565b6040516103db919061169a565b60405180910390f35b3480156103f057600080fd5b506103f9610ef4565b005b6104036112e2565b005b60003373ffffffffffffffffffffffffffffffffffffffff1660008054906101000a900473ffffffffffffffffffffffffffffffffffffffff1673ffffffffffffffffffffffffffffffffffffffff1614610495576040517f08c379a000000000000000000000000000000000000000000000000000000000815260040161048c906118b2565b60405180910390fd5b47905090565b60065481565b60055481565b60035481565b60045481565b60015481565b60025481565b600080600a60003373ffffffffffffffffffffffffffffffffffffffff1673ffffffffffffffffffffffffffffffffffffffff16815260200190815260200160002054905060006009828154811061051a576105196118d2565b5b9060005260206000209060040201600201549050809250505090565b600354421061057a576040517f08c379a00000000000000000000000000000000000000000000000000000000081526004016105719061194d565b60405180910390fd5b60008054906101000a900473ffffffffffffffffffffffffffffffffffffffff1673ffffffffffffffffffffffffffffffffffffffff163373ffffffffffffffffffffffffffffffffffffffff161415610609576040517f08c379a0000000000000000000000000000000000000000000000000000000008152600401610600906119b9565b60405180910390fd5b6000600a60003373ffffffffffffffffffffffffffffffffffffffff1673ffffffffffffffffffffffffffffffffffffffff16815260200190815260200160002054141561068c576040517f08c379a000000000000000000000000000000000000000000000000000000000815260040161068390611a25565b60405180910390fd5b6000600a60003373ffffffffffffffffffffffffffffffffffffffff1673ffffffffffffffffffffffffffffffffffffffff1681526020019081526020016000205490506000600982815481106106e6576106e56118d2565b5b90600052602060002090600402016040518060800160405290816000820160009054906101000a900473ffffffffffffffffffffffffffffffffffffffff1673ffffffffffffffffffffffffffffffffffffffff1673ffffffffffffffffffffffffffffffffffffffff16815260200160018201548152602001600282015481526020016003820160009054906101000a900460ff1615151515815250509050806040015134146107cc576040517f08c379a00000000000000000000000000000000000000000000000000000000081526004016107c390611ab7565b60405180910390fd5b6000341161080f576040517f08c379a000000000000000000000000000000000000000000000000000000000815260040161080690611b49565b60405180910390fd5b3460098381548110610824576108236118d2565b5b9060005260206000209060040201600101546108409190611b98565b60098381548110610854576108536118d2565b5b906000526020600020906004020160010181905550346009838154811061087e5761087d6118d2565b5b90600052602060002090600402016002015461089a9190611bee565b600983815481106108ae576108ad6118d2565b5b9060005260206000209060040201600201819055505050565b60008054906101000a900473ffffffffffffffffffffffffffffffffffffffff1681565b600a6020528060005260406000206000915090505481565b6009818154811061091357600080fd5b90600052602060002090600402016000915090508060000160009054906101000a900473ffffffffffffffffffffffffffffffffffffffff16908060010154908060020154908060030160009054906101000a900460ff16905084565b600b6020528060005260406000206000915054906101000a900460ff1681565b60008054906101000a900473ffffffffffffffffffffffffffffffffffffffff1673ffffffffffffffffffffffffffffffffffffffff163373ffffffffffffffffffffffffffffffffffffffff161415610a1f576040517f08c379a0000000000000000000000000000000000000000000000000000000008152600401610a1690611c6e565b60405180910390fd5b6003544211610a63576040517f08c379a0000000000000000000000000000000000000000000000000000000008152600401610a5a90611cda565b60405180910390fd5b6006544210610aa7576040517f08c379a0000000000000000000000000000000000000000000000000000000008152600401610a9e90611d46565b60405180910390fd5b6000600a60003373ffffffffffffffffffffffffffffffffffffffff1673ffffffffffffffffffffffffffffffffffffffff168152602001908152602001600020541415610b2a576040517f08c379a0000000000000000000000000000000000000000000000000000000008152600401610b2190611db2565b60405180910390fd5b60001515600b60003373ffffffffffffffffffffffffffffffffffffffff1673ffffffffffffffffffffffffffffffffffffffff16815260200190815260200160002060009054906101000a900460ff16151514610bbd576040517f08c379a0000000000000000000000000000000000000000000000000000000008152600401610bb490611e1e565b60405180910390fd5b60076000815480929190610bd090611e3e565b91905055506001600b60003373ffffffffffffffffffffffffffffffffffffffff1673ffffffffffffffffffffffffffffffffffffffff16815260200190815260200160002060006101000a81548160ff021916908315150217905550565b60001515600860009054906101000a900460ff16151514610c85576040517f08c379a0000000000000000000000000000000000000000000000000000000008152600401610c7c90611ed3565b60405180910390fd5b60008054906101000a900473ffffffffffffffffffffffffffffffffffffffff1673ffffffffffffffffffffffffffffffffffffffff163373ffffffffffffffffffffffffffffffffffffffff1614610d13576040517f08c379a0000000000000000000000000000000000000000000000000000000008152600401610d0a90611f65565b60405180910390fd5b6003544211610d57576040517f08c379a0000000000000000000000000000000000000000000000000000000008152600401610d4e90611cda565b60405180910390fd5b6006544211610d9b576040517f08c379a0000000000000000000000000000000000000000000000000000000008152600401610d9290611fd1565b60405180910390fd5b6002600454610daa9190612020565b60075411610ded576040517f08c379a0000000000000000000000000000000000000000000000000000000008152600401610de49061209d565b60405180910390fd5b60004790506001600860006101000a81548160ff02191690831515021790555060008054906101000a900473ffffffffffffffffffffffffffffffffffffffff1673ffffffffffffffffffffffffffffffffffffffff166108fc829081150290604051600060405180830381858888f19350505050158015610e73573d6000803e3d6000fd5b5050565b600080600a60003373ffffffffffffffffffffffffffffffffffffffff1673ffffffffffffffffffffffffffffffffffffffff168152602001908152602001600020549050600060098281548110610ed257610ed16118d2565b5b9060005260206000209060040201600101549050809250505090565b60075481565b6000600a60003373ffffffffffffffffffffffffffffffffffffffff1673ffffffffffffffffffffffffffffffffffffffff168152602001908152602001600020541415610f77576040517f08c379a0000000000000000000000000000000000000000000000000000000008152600401610f6e90611db2565b60405180910390fd5b60008054906101000a900473ffffffffffffffffffffffffffffffffffffffff1673ffffffffffffffffffffffffffffffffffffffff163373ffffffffffffffffffffffffffffffffffffffff161415611006576040517f08c379a0000000000000000000000000000000000000000000000000000000008152600401610ffd90612109565b60405180910390fd5b600354421161104a576040517f08c379a000000000000000000000000000000000000000000000000000000000815260040161104190612175565b60405180910390fd5b600654421161108e576040517f08c379a0000000000000000000000000000000000000000000000000000000008152600401611085906121e1565b60405180910390fd5b600260045461109d9190612020565b60075411156110e1576040517f08c379a00000000000000000000000000000000000000000000000000000000081526004016110d89061224d565b60405180910390fd5b6000600a60003373ffffffffffffffffffffffffffffffffffffffff1673ffffffffffffffffffffffffffffffffffffffff168152602001908152602001600020549050600015156009828154811061113d5761113c6118d2565b5b906000526020600020906004020160030160009054906101000a900460ff1615151461119e576040517f08c379a0000000000000000000000000000000000000000000000000000000008152600401611195906122b9565b60405180910390fd5b6000600982815481106111b4576111b36118d2565b5b90600052602060002090600402016001015490506000600983815481106111de576111dd6118d2565b5b906000526020600020906004020160010181905550600160098381548110611209576112086118d2565b5b906000526020600020906004020160030160006101000a81548160ff021916908315150217905550600060098381548110611247576112466118d2565b5b906000526020600020906004020160000160009054906101000a900473ffffffffffffffffffffffffffffffffffffffff1690506001600860006101000a81548160ff0219169083151502179055508073ffffffffffffffffffffffffffffffffffffffff166108fc839081150290604051600060405180830381858888f193505050501580156112dc573d6000803e3d6000fd5b50505050565b60008054906101000a900473ffffffffffffffffffffffffffffffffffffffff1673ffffffffffffffffffffffffffffffffffffffff163373ffffffffffffffffffffffffffffffffffffffff161415611371576040517f08c379a0000000000000000000000000000000000000000000000000000000008152600401611368906119b9565b60405180910390fd5b60035442106113b5576040517f08c379a00000000000000000000000000000000000000000000000000000000081526004016113ac9061194d565b60405180910390fd5b6000600a60003373ffffffffffffffffffffffffffffffffffffffff1673ffffffffffffffffffffffffffffffffffffffff1681526020019081526020016000205414611437576040517f08c379a000000000000000000000000000000000000000000000000000000000815260040161142e9061234b565b60405180910390fd5b60025434111561147c576040517f08c379a0000000000000000000000000000000000000000000000000000000008152600401611473906123b7565b60405180910390fd5b600034116114bf576040517f08c379a00000000000000000000000000000000000000000000000000000000081526004016114b690612449565b60405180910390fd5b60015460055410611505576040517f08c379a00000000000000000000000000000000000000000000000000000000081526004016114fc906124b5565b60405180910390fd5b600060405180608001604052803373ffffffffffffffffffffffffffffffffffffffff168152602001348152602001346002546115429190611bee565b81526020016000151581525090506005600081548092919061156390611e3e565b91905055506004600081548092919061157b90611e3e565b9190505550600981908060018154018082558091505060019003906000526020600020906004020160009091909190915060008201518160000160006101000a81548173ffffffffffffffffffffffffffffffffffffffff021916908373ffffffffffffffffffffffffffffffffffffffff160217905550602082015181600101556040820151816002015560608201518160030160006101000a81548160ff0219169083151502179055505050600160098054905061163b9190611bee565b600a60003373ffffffffffffffffffffffffffffffffffffffff1673ffffffffffffffffffffffffffffffffffffffff1681526020019081526020016000208190555050565b6000819050919050565b61169481611681565b82525050565b60006020820190506116af600083018461168b565b92915050565b600073ffffffffffffffffffffffffffffffffffffffff82169050919050565b60006116e0826116b5565b9050919050565b6116f0816116d5565b82525050565b600060208201905061170b60008301846116e7565b92915050565b600080fd5b6000611721826116b5565b9050919050565b61173181611716565b811461173c57600080fd5b50565b60008135905061174e81611728565b92915050565b60006020828403121561176a57611769611711565b5b60006117788482850161173f565b91505092915050565b61178a81611681565b811461179557600080fd5b50565b6000813590506117a781611781565b92915050565b6000602082840312156117c3576117c2611711565b5b60006117d184828501611798565b91505092915050565b60008115159050919050565b6117ef816117da565b82525050565b600060808201905061180a60008301876116e7565b611817602083018661168b565b611824604083018561168b565b61183160608301846117e6565b95945050505050565b600060208201905061184f60008301846117e6565b92915050565b600082825260208201905092915050565b7f796f7520617265206e6f7420746865206d616e61676572000000000000000000600082015250565b600061189c601783611855565b91506118a782611866565b602082019050919050565b600060208201905081810360008301526118cb8161188f565b9050919050565b7f4e487b7100000000000000000000000000000000000000000000000000000000600052603260045260246000fd5b7f446561646c696e65206861732070617373656400000000000000000000000000600082015250565b6000611937601383611855565b915061194282611901565b602082019050919050565b600060208201905081810360008301526119668161192a565b9050919050565b7f6f776e65722063616e6e6f742062757920666c61740000000000000000000000600082015250565b60006119a3601583611855565b91506119ae8261196d565b602082019050919050565b600060208201905081810360008301526119d281611996565b9050919050565b7f796f7520617265206e6577206275796572000000000000000000000000000000600082015250565b6000611a0f601183611855565b9150611a1a826119d9565b602082019050919050565b60006020820190508181036000830152611a3e81611a02565b9050919050565b7f706c6561736520636865636b207468652072656d61696e696e6720616d6f756e60008201527f7400000000000000000000000000000000000000000000000000000000000000602082015250565b6000611aa1602183611855565b9150611aac82611a45565b604082019050919050565b60006020820190508181036000830152611ad081611a94565b9050919050565b7f4d696e696d756d20707269636520746f206465706f736974206973203120657460008201527f6800000000000000000000000000000000000000000000000000000000000000602082015250565b6000611b33602183611855565b9150611b3e82611ad7565b604082019050919050565b60006020820190508181036000830152611b6281611b26565b9050919050565b7f4e487b7100000000000000000000000000000000000000000000000000000000600052601160045260246000fd5b6000611ba382611681565b9150611bae83611681565b9250827fffffffffffffffffffffffffffffffffffffffffffffffffffffffffffffffff03821115611be357611be2611b69565b5b828201905092915050565b6000611bf982611681565b9150611c0483611681565b925082821015611c1757611c16611b69565b5b828203905092915050565b7f6f776e65722063616e6e6f7420766f7465000000000000000000000000000000600082015250565b6000611c58601183611855565b9150611c6382611c22565b602082019050919050565b60006020820190508181036000830152611c8781611c4b565b9050919050565b7f70726f6a65637420686173206e6f7420656e6465642079657400000000000000600082015250565b6000611cc4601983611855565b9150611ccf82611c8e565b602082019050919050565b60006020820190508181036000830152611cf381611cb7565b9050919050565b7f566f74696e672074696d65206861732070617373656400000000000000000000600082015250565b6000611d30601683611855565b9150611d3b82611cfa565b602082019050919050565b60006020820190508181036000830152611d5f81611d23565b9050919050565b7f796f752068617665206e6f7420626f7567687420666c61740000000000000000600082015250565b6000611d9c601883611855565b9150611da782611d66565b602082019050919050565b60006020820190508181036000830152611dcb81611d8f565b9050919050565b7f796f75206861766520616c726561647920766f74656400000000000000000000600082015250565b6000611e08601683611855565b9150611e1382611dd2565b602082019050919050565b60006020820190508181036000830152611e3781611dfb565b9050919050565b6000611e4982611681565b91507fffffffffffffffffffffffffffffffffffffffffffffffffffffffffffffffff821415611e7c57611e7b611b69565b5b600182019050919050565b7f66756e6420697320616c726561647920636c61696d6564000000000000000000600082015250565b6000611ebd601783611855565b9150611ec882611e87565b602082019050919050565b60006020820190508181036000830152611eec81611eb0565b9050919050565b7f6f6e6c7920636f6e74726163746f722063616e20636c61696d2074686520667560008201527f6e64730000000000000000000000000000000000000000000000000000000000602082015250565b6000611f4f602383611855565b9150611f5a82611ef3565b604082019050919050565b60006020820190508181036000830152611f7e81611f42565b9050919050565b7f566f74696e672074696d6520686173206e6f7420796574207061737365640000600082015250565b6000611fbb601e83611855565b9150611fc682611f85565b602082019050919050565b60006020820190508181036000830152611fea81611fae565b9050919050565b7f4e487b7100000000000000000000000000000000000000000000000000000000600052601260045260246000fd5b600061202b82611681565b915061203683611681565b92508261204657612045611ff1565b5b828204905092915050565b7f6d616a6f7269747920646f6573206e6f7420737570706f727400000000000000600082015250565b6000612087601983611855565b915061209282612051565b602082019050919050565b600060208201905081810360008301526120b68161207a565b9050919050565b7f6f6e6c792075736572732063616e20636c61696d207468652066756e64000000600082015250565b60006120f3601d83611855565b91506120fe826120bd565b602082019050919050565b60006020820190508181036000830152612122816120e6565b9050919050565b7f70726f6a656374206973206e6f74206f76657220796574000000000000000000600082015250565b600061215f601783611855565b915061216a82612129565b602082019050919050565b6000602082019050818103600083015261218e81612152565b9050919050565b7f766f74696e672074696d6520686173206e6f7420796574207061737365640000600082015250565b60006121cb601e83611855565b91506121d682612195565b602082019050919050565b600060208201905081810360008301526121fa816121be565b9050919050565b7f6d616a6f7269747920737570706f727420636f6e74726163746f720000000000600082015250565b6000612237601b83611855565b915061224282612201565b602082019050919050565b600060208201905081810360008301526122668161222a565b9050919050565b7f46756e647320616c726561647920636c61696d65640000000000000000000000600082015250565b60006122a3601583611855565b91506122ae8261226d565b602082019050919050565b600060208201905081810360008301526122d281612296565b9050919050565b7f6f6e6c79206e6577206275796572732061726520616c6c6f77656420746f206260008201527f7579000000000000000000000000000000000000000000000000000000000000602082015250565b6000612335602283611855565b9150612340826122d9565b604082019050919050565b6000602082019050818103600083015261236481612328565b9050919050565b7f706c6561736520636865636b2074686520666c61742070726963650000000000600082015250565b60006123a1601b83611855565b91506123ac8261236b565b602082019050919050565b600060208201905081810360008301526123d081612394565b9050919050565b7f6d696e696d756d20707269636520746f20626f6f6b206973203120657468657260008201527f65756d0000000000000000000000000000000000000000000000000000000000602082015250565b6000612433602383611855565b915061243e826123d7565b604082019050919050565b6000602082019050818103600083015261246281612426565b9050919050565b7f616c6c20666c6174732061726520736f6c640000000000000000000000000000600082015250565b600061249f601283611855565b91506124aa82612469565b602082019050919050565b600060208201905081810360008301526124ce81612492565b905091905056fea26469706673582212206bdef242de9dbbe7846a043f9db13ceb4fd69331a9019ed1ecff019369b5ece364736f6c634300080b0033",
  "immutableReferences": {},
  "source": " //SPDX-License-Identifier: GPL-3.0\r\npragma solidity >=0.7.0 <0.9.0;\r\n\r\ncontract Estate{\r\n    address payable public owner;\r\n    uint public totalFlats;\r\n    uint public flatPrice=20*(10**18);\r\n    uint public endTime;\r\n    uint public totalBuyers;\r\n    uint public soldFlats;\r\n    uint public votingEndTime;\r\n    uint public totalVote;\r\n    bool fundClaimed;\r\n\r\n    struct BuyerDetails\r\n    {\r\n        address payable buyerAddress;\r\n        uint totalAmountPaid;\r\n        uint amountRemaining;\r\n        bool fundClaimed;\r\n    }\r\n    BuyerDetails[] public buyerDetails;\r\n    mapping(address=>uint) public buyerMap;\r\n    mapping(address=>bool)public voted;\r\n\r\n    constructor(uint _totalFlats, uint _endTime, uint _votingEndTime)\r\n    {\r\n        owner=payable(msg.sender);\r\n        endTime=block.timestamp+ _endTime;\r\n        totalFlats=_totalFlats;\r\n        votingEndTime=block.timestamp + _votingEndTime;\r\n        buyerDetails.push();\r\n    }\r\n    function buyflat() external payable\r\n    {\r\n        require(msg.sender!=owner,\"owner cannot buy flat\");\r\n        require(block.timestamp<endTime,\"Deadline has passed\");\r\n        require(buyerMap[msg.sender]==0,\"only new buyers are allowed to buy\");\r\n        require(msg.value<=flatPrice,\"please check the flat price\");\r\n        require(msg.value>0,\"minimum price to book is 1 ethereum\");\r\n        require(soldFlats<totalFlats,\"all flats are sold\");\r\n\r\n            BuyerDetails memory buyer=BuyerDetails({\r\n            buyerAddress:payable(msg.sender),\r\n            totalAmountPaid:msg.value,\r\n            amountRemaining:flatPrice-msg.value,\r\n            fundClaimed:false\r\n        });\r\n\r\n        soldFlats++;\r\n        totalBuyers++;\r\n        buyerDetails.push(buyer);\r\n        buyerMap[msg.sender]=buyerDetails.length-1;\r\n        \r\n      \r\n    }\r\n    function depositFund() external payable\r\n    {\r\n      require(block.timestamp<endTime,\"Deadline has passed\");\r\n      require(msg.sender!=owner,\"owner cannot buy flat\");\r\n      require(buyerMap[msg.sender]!=0,\"you are new buyer\");\r\n\r\n\r\n      uint location=buyerMap[msg.sender];\r\n      BuyerDetails memory buyer=buyerDetails[location];\r\n     \r\n      require(msg.value == buyer.amountRemaining,\"please check the remaining amount\");\r\n     \r\n      require(msg.value>0,\"Minimum price to deposit is 1 eth\");\r\n\r\n      buyerDetails[location].totalAmountPaid=buyerDetails[location].totalAmountPaid+msg.value;\r\n\r\n       buyerDetails[location].amountRemaining=buyerDetails[location].amountRemaining-msg.value;\r\n\r\n       //emit Message(\"Money deposited\");\r\n    }\r\n    function putVote() external\r\n    {\r\n        require(msg.sender!=owner,\"owner cannot vote\");\r\n        require(block.timestamp>endTime,\"project has not ended yet\");\r\n        require(block.timestamp<votingEndTime,\"Voting time has passed\");\r\n        require(buyerMap[msg.sender]!=0,\"you have not bought flat\");\r\n        require(voted[msg.sender]==false,\"you have already voted\");\r\n        totalVote++;\r\n        voted[msg.sender]=true;\r\n    }\r\n\r\n    function claimFundContractor() public{\r\n        require(fundClaimed==false,\"fund is already claimed\");\r\n        require(msg.sender==owner,\"only contractor can claim the funds\");\r\n        require(block.timestamp>endTime,\"project has not ended yet\");\r\n        require(block.timestamp>votingEndTime,\"Voting time has not yet passed\");\r\n        require(totalVote>totalBuyers/2,\"majority does not support\");\r\n        uint amount=address(this).balance;\r\n        fundClaimed=true;\r\n        owner.transfer(amount);   \r\n    }\r\n    function claimFundUser() public{\r\n        require(buyerMap[msg.sender]!=0,\"you have not bought flat\");\r\n        require(msg.sender!=owner,\"only users can claim the fund\");\r\n        require(block.timestamp>endTime,\"project is not over yet\");\r\n        require(block.timestamp>votingEndTime,\"voting time has not yet passed\");\r\n        require(totalVote<=totalBuyers/2,\"majority support contractor\");\r\n        uint location=buyerMap[msg.sender];\r\n        require(buyerDetails[location].fundClaimed==false,\"Funds already claimed\");\r\n        uint amount=buyerDetails[location].totalAmountPaid;\r\n        buyerDetails[location].totalAmountPaid=0;\r\n        buyerDetails[location].fundClaimed=true;\r\n        address payable buyer=buyerDetails[location].buyerAddress;\r\n        fundClaimed=true;\r\n        buyer.transfer(amount); \r\n    }\r\n    function getBalance()public view returns(uint256){\r\n        require(owner==msg.sender,\"you are not the manager\");\r\n        return address(this).balance;\r\n    }\r\n\r\n    function getdepositamt() public view returns (uint256){\r\n        uint index=buyerMap[msg.sender];\r\n        uint answer=buyerDetails[index].totalAmountPaid;\r\n        return answer;\r\n    }\r\n    function getamtremaining()public view returns(uint256){\r\n        uint index=buyerMap[msg.sender];\r\n        uint answer2=buyerDetails[index].amountRemaining;\r\n        return answer2;\r\n    }\r\n}\r\n",
  "sourcePath": "C:\\Users\\subha\\OneDrive\\Desktop\\lottery\\web3lab\\contracts\\Estate.sol",
  "compiler": {
    "name": "solc",
    "version": "0.8.11+commit.d7f03943.Emscripten.clang"
  },
  "schemaVersion": "3.4.11",
  "updatedAt": "2023-01-26T15:51:08.500Z",
  "networkType": "ethereum",
  "devdoc": {
    "kind": "dev",
    "methods": {},
    "version": 1
  },
  "userdoc": {
    "kind": "user",
    "methods": {},
    "version": 1
  }
}